:10029A0074656D7065726174757265205445535446
:0102AA000053
:1001EF00D2A6C2A6D2A5E4F508F5097D10C2A5E5F1
:1001FF000925E0F509E50833F50830A405430901A1
:0C020F008000D2A5DDE7D2A6AE08AF0942
:01021B0022C0
:100003001201EFAB07AA06EB25E0FBEA33C4F85471
:10001300F0C868FAEBC4540F48FB7C007D0AFFAEBE
:10002300021201538E118F12EBAE027802CEC3136C
:10003300CE13D8F9FBAA06E512AE117802CEC3138C
:10004300CE13D8F9F5128E11C3EA940440047A044E
:100053007B007C037DE8AF03AE021201657C007D6B
:100063000A120165ED2430F50A7C007D64AF03AE0E
:10007300021201657C007D0A120165ED2430F50B47
:100083007C007D0AAF03AE021201657C007D0A127B
:100093000165ED2430F50CAE02AF037C007D0A123E
:1000A3000165ED2430F50DAE11AF127C007D0A120F
:1000B3000165ED2430F50EE50A6430702E7B207D5A
:1000C300017F04FE1202C3E50B643070177B207DB1
:1000D300017F05FE1202C3E50CB430047B208017B8
:1000E300AB0C80131202BBAB0C800CAB0A7F041267
:1000F30002BF1202BBAB0C7D017F067E001202C35E
:10010300AB0D7D017F077E001202C37B2E7D017F35
:10011300087E001202C3AB0E7D017F097E0012022E
:10012300C37BDF7D017F0A7E001202C37B437D0117
:070133007F0B7E000202C3F6
:1001BA007F0A7E0012021C12023F7F327E00120268
:1001CA001C7F011202787F0A7E0012021C7BFF7AD2
:1001DA0002799AE4FDFF1202591200037FDC7E00C5
:0501EA0012021C80F46C
:0402D7007F28DFFE9F
:0102DB002200
:070271007F381202787F388C
:10027800AE071202D7C2A0C2A1D2A28E90C2A222F9
:1002AB00AE071202D7D2A0C2A1D2A28E90C2A222B6
:10028800ED7006EF2480FC8004EF24C0FCAF04026C
:020298000278EA
:0802BB00AB0B7F057D017E0005
:0802C300120288AF030202AB36
:1002590012028812013AFF600EF5901202AB740186
:0802690029F9E43AFA80EC22C5
:10023F007F011202781202711202717F0C12027882
:0A024F007F801202787F010202781E
:10021C00AC06AD07D3ED9400EC94004015E4FAFB6A
:10022C000BBB00010ABA04F8BB74F5ED1D70E51C9C
:02023C0080E25E
:01023E00229D
:030000000202CB2E
:0C02CB00787FE4F6D8FD7581120201BABC
:10013A00BB010689828A83E0225002E722BBFE02C3
:09014A00E32289828A83E49322F6
:10015300EF8DF0A4A8F0CF8CF0A428CE8DF0A42EC0
:02016300FE227A
:10016500BC000BBE0029EF8DF084FFADF022E4CC7E
:10017500F875F008EF2FFFEE33FEEC33FCEE9DEC47
:10018500984005FCEE9DFE0FD5F0E9E4CEFD22ED8D
:10019500F8F5F0EE8420D21CFEADF075F008EF2FD7
:1001A500FFED33FD4007985006D5F0F222C398FDC8
:0501B5000FD5F0EA2265
:00000001FF
